{
    "contractName": "Adoption",
    "abi": [
        {
            "inputs": [
                {
                    "internalType": "uint256",
                    "name": "petId",
                    "type": "uint256"
                }
            ],
            "name": "adopt",
            "outputs": [
                {
                    "internalType": "uint256",
                    "name": "",
                    "type": "uint256"
                }
            ],
            "stateMutability": "nonpayable",
            "type": "function"
        },
        {
            "inputs": [
                {
                    "internalType": "uint256",
                    "name": "",
                    "type": "uint256"
                }
            ],
            "name": "adopters",
            "outputs": [
                {
                    "internalType": "address",
                    "name": "",
                    "type": "address"
                }
            ],
            "stateMutability": "view",
            "type": "function"
        },
        {
            "inputs": [],
            "name": "getAdopters",
            "outputs": [
                {
                    "internalType": "address[16]",
                    "name": "",
                    "type": "address[16]"
                }
            ],
            "stateMutability": "view",
            "type": "function"
        },
        {
            "inputs": [],
            "name": "petNumber",
            "outputs": [
                {
                    "internalType": "uint256",
                    "name": "",
                    "type": "uint256"
                }
            ],
            "stateMutability": "view",
            "type": "function"
        }
    ],
    "bytecode": "608060405234801561001057600080fd5b50610239806100206000396000f3fe608060405234801561001057600080fd5b506004361061004c5760003560e01c80633de4eb171461005157806343ae80d31461006f5780638588b2c51461009a578063ff32db01146100bb575b600080fd5b6100596100c3565b6040516100669190610199565b60405180910390f35b61008261007d3660046101d4565b610109565b6040516001600160a01b039091168152602001610066565b6100ad6100a83660046101d4565b610129565b604051908152602001610066565b6100ad601081565b6100cb61017a565b604080516102008101918290529060009060109082845b81546001600160a01b031681526001909101906020018083116100e2575050505050905090565b6000816010811061011957600080fd5b01546001600160a01b0316905081565b6000808211801561013a5750601082105b61014357600080fd5b3360008360108110610157576101576101ed565b0180546001600160a01b0319166001600160a01b03929092169190911790555090565b6040518061020001604052806010906020820280368337509192915050565b6102008101818360005b60108110156101cb5781516001600160a01b03168352602092830192909101906001016101a3565b50505092915050565b6000602082840312156101e657600080fd5b5035919050565b634e487b7160e01b600052603260045260246000fdfea264697066735822122020d9cc69a06e416b9d910b8b3a7a7bafa3f3e6b50186975053e2d3a27300cd9b64736f6c634300080b0033",
    "sourcePath": "/home/duzicman/projects/crypto/etheruem/first_contract/contracts/adoption.sol",
    "compiler": {
        "name": "solc",
        "version": "0.8.11+commit.d7f03943"
    },
    "functionHashes": {
        "adopt(uint256)": "8588b2c5",
        "adopters(uint256)": "43ae80d3",
        "getAdopters()": "3de4eb17",
        "petNumber()": "ff32db01"
    },
    "gasEstimates": {
        "creation": {
            "codeDepositCost": "113800",
            "executionCost": "159",
            "totalCost": "113959"
        },
        "external": {
            "adopt(uint256)": "24662",
            "adopters(uint256)": "2457",
            "getAdopters()": "infinite",
            "petNumber()": "239"
        }
    }
}