{
  "contractName": "Adoption",
  "abi": [
    {
      "inputs": [
        {
          "internalType": "uint256",
          "name": "",
          "type": "uint256"
        }
      ],
      "name": "adopters",
      "outputs": [
        {
          "internalType": "address",
          "name": "",
          "type": "address"
        }
      ],
      "stateMutability": "view",
      "type": "function",
      "constant": true
    },
    {
      "inputs": [],
      "name": "petNumber",
      "outputs": [
        {
          "internalType": "uint256",
          "name": "",
          "type": "uint256"
        }
      ],
      "stateMutability": "view",
      "type": "function",
      "constant": true
    },
    {
      "inputs": [
        {
          "internalType": "uint256",
          "name": "petId",
          "type": "uint256"
        }
      ],
      "name": "adopt",
      "outputs": [
        {
          "internalType": "uint256",
          "name": "",
          "type": "uint256"
        }
      ],
      "stateMutability": "nonpayable",
      "type": "function"
    },
    {
      "inputs": [
        {
          "internalType": "uint256",
          "name": "petId",
          "type": "uint256"
        }
      ],
      "name": "readopt",
      "outputs": [
        {
          "internalType": "uint256",
          "name": "",
          "type": "uint256"
        }
      ],
      "stateMutability": "nonpayable",
      "type": "function"
    },
    {
      "inputs": [],
      "name": "getAdopters",
      "outputs": [
        {
          "internalType": "address[16]",
          "name": "",
          "type": "address[16]"
        }
      ],
      "stateMutability": "view",
      "type": "function",
      "constant": true
    }
  ],
  "bytecode": "0x608060405234801561001057600080fd5b50610817806100206000396000f3fe608060405234801561001057600080fd5b50600436106100575760003560e01c80633de4eb171461005c57806343ae80d31461007a5780638588b2c5146100aa578063c1c27903146100da578063ff32db011461010a575b600080fd5b610064610128565b6040516100719190610585565b60405180910390f35b610094600480360381019061008f91906105dc565b6101a9565b6040516100a19190610618565b60405180910390f35b6100c460048036038101906100bf91906105dc565b6101df565b6040516100d19190610642565b60405180910390f35b6100f460048036038101906100ef91906105dc565b610330565b6040516101019190610642565b60405180910390f35b610112610480565b60405161011f9190610642565b60405180910390f35b610130610485565b600060108060200260405190810160405280929190826010801561019f576020028201915b8160009054906101000a900473ffffffffffffffffffffffffffffffffffffffff1673ffffffffffffffffffffffffffffffffffffffff1681526020019060010190808311610155575b5050505050905090565b600081601081106101b957600080fd5b016000915054906101000a900473ffffffffffffffffffffffffffffffffffffffff1681565b60008082101580156101f15750601082105b610230576040517f08c379a0000000000000000000000000000000000000000000000000000000008152600401610227906106ba565b60405180910390fd5b600073ffffffffffffffffffffffffffffffffffffffff166000836010811061025c5761025b6106da565b5b0160009054906101000a900473ffffffffffffffffffffffffffffffffffffffff1673ffffffffffffffffffffffffffffffffffffffff16146102d4576040517f08c379a00000000000000000000000000000000000000000000000000000000081526004016102cb90610755565b60405180910390fd5b33600083601081106102e9576102e86106da565b5b0160006101000a81548173ffffffffffffffffffffffffffffffffffffffff021916908373ffffffffffffffffffffffffffffffffffffffff160217905550819050919050565b60008082101580156103425750601082105b610381576040517f08c379a0000000000000000000000000000000000000000000000000000000008152600401610378906106ba565b60405180910390fd5b3373ffffffffffffffffffffffffffffffffffffffff16600083601081106103ac576103ab6106da565b5b0160009054906101000a900473ffffffffffffffffffffffffffffffffffffffff1673ffffffffffffffffffffffffffffffffffffffff1614610424576040517f08c379a000000000000000000000000000000000000000000000000000000000815260040161041b906107c1565b60405180910390fd5b6000808360108110610439576104386106da565b5b0160006101000a81548173ffffffffffffffffffffffffffffffffffffffff021916908373ffffffffffffffffffffffffffffffffffffffff160217905550819050919050565b601081565b604051806102000160405280601090602082028036833780820191505090505090565b600060109050919050565b600081905092915050565b6000819050919050565b600073ffffffffffffffffffffffffffffffffffffffff82169050919050565b60006104f3826104c8565b9050919050565b610503816104e8565b82525050565b600061051583836104fa565b60208301905092915050565b6000602082019050919050565b610537816104a8565b61054181846104b3565b925061054c826104be565b8060005b8381101561057d5781516105648782610509565b965061056f83610521565b925050600181019050610550565b505050505050565b60006102008201905061059b600083018461052e565b92915050565b600080fd5b6000819050919050565b6105b9816105a6565b81146105c457600080fd5b50565b6000813590506105d6816105b0565b92915050565b6000602082840312156105f2576105f16105a1565b5b6000610600848285016105c7565b91505092915050565b610612816104e8565b82525050565b600060208201905061062d6000830184610609565b92915050565b61063c816105a6565b82525050565b60006020820190506106576000830184610633565b92915050565b600082825260208201905092915050565b7f496e646578204f7574206f662072616e67650000000000000000000000000000600082015250565b60006106a460128361065d565b91506106af8261066e565b602082019050919050565b600060208201905081810360008301526106d381610697565b9050919050565b7f4e487b7100000000000000000000000000000000000000000000000000000000600052603260045260246000fd5b7f50657420616c6c72656164792061646f70746564000000000000000000000000600082015250565b600061073f60148361065d565b915061074a82610709565b602082019050919050565b6000602082019050818103600083015261076e81610732565b9050919050565b7f506574206e6f742061646f707465642062792073656e64657200000000000000600082015250565b60006107ab60198361065d565b91506107b682610775565b602082019050919050565b600060208201905081810360008301526107da8161079e565b905091905056fea2646970667358221220bc4a17ee356af7dbdcd0c8ea498a01c00bfe830311381b89f494ffa613788fb464736f6c634300080b0033",
  "immutableReferences": {},
  "source": "// SPDX-License-Identifier: MIT\npragma solidity ^0.8.11;\ncontract Adoption{\n    uint public constant petNumber = 16;\n    address[petNumber] public adopters;\n    \n    function adopt(uint petId) public returns (uint){\n        require(petId >=0 && petId < petNumber, \"Index Out of range\");\n        require(adopters[petId] == address(0), \"Pet allready adopted\");\n        adopters[petId] = msg.sender;\n        return petId;\n    }\n\n    function readopt(uint petId) public returns (uint){\n        require(petId >=0 && petId < petNumber, \"Index Out of range\");\n        require(adopters[petId] == msg.sender, \"Pet not adopted by sender\");\n        adopters[petId] = address(0);\n        return petId;\n    }\n    \n    function getAdopters() public view returns (address[petNumber] memory){\n        return adopters;\n    }\n}",
  "sourcePath": "/home/duzicman/projects/crypto/etheruem/first_contract/contracts/Adoption.sol",
  "compiler": {
    "name": "solc",
    "version": "0.8.11+commit.d7f03943.Emscripten.clang"
  },
  "schemaVersion": "3.4.4",
  "updatedAt": "2022-01-30T16:45:45.697Z",
  "networkType": "ethereum",
  "devdoc": {
    "kind": "dev",
    "methods": {},
    "version": 1
  },
  "userdoc": {
    "kind": "user",
    "methods": {},
    "version": 1
  }
}